{
  "_format": "hh-sol-artifact-1",
  "contractName": "StudentManagement",
  "sourceName": "contracts/studentManagement.sol",
  "abi": [
    {
      "inputs": [],
      "stateMutability": "nonpayable",
      "type": "constructor"
    },
    {
      "anonymous": false,
      "inputs": [
        {
          "indexed": true,
          "internalType": "string",
          "name": "name",
          "type": "string"
        },
        {
          "indexed": true,
          "internalType": "string",
          "name": "class",
          "type": "string"
        },
        {
          "indexed": true,
          "internalType": "uint8",
          "name": "age",
          "type": "uint8"
        }
      ],
      "name": "CreatedStudent",
      "type": "event"
    },
    {
      "inputs": [
        {
          "internalType": "uint8",
          "name": "_studentId",
          "type": "uint8"
        }
      ],
      "name": "deleteStudent",
      "outputs": [],
      "stateMutability": "nonpayable",
      "type": "function"
    },
    {
      "inputs": [
        {
          "internalType": "uint8",
          "name": "_studentId",
          "type": "uint8"
        }
      ],
      "name": "getStudent",
      "outputs": [
        {
          "components": [
            {
              "internalType": "string",
              "name": "name",
              "type": "string"
            },
            {
              "internalType": "string",
              "name": "class",
              "type": "string"
            },
            {
              "internalType": "uint8",
              "name": "age",
              "type": "uint8"
            },
            {
              "internalType": "enum StudentManagement.Gender",
              "name": "gender",
              "type": "uint8"
            }
          ],
          "internalType": "struct StudentManagement.Student",
          "name": "student_",
          "type": "tuple"
        }
      ],
      "stateMutability": "view",
      "type": "function"
    },
    {
      "inputs": [],
      "name": "getStudents",
      "outputs": [
        {
          "components": [
            {
              "internalType": "string",
              "name": "name",
              "type": "string"
            },
            {
              "internalType": "string",
              "name": "class",
              "type": "string"
            },
            {
              "internalType": "uint8",
              "name": "age",
              "type": "uint8"
            },
            {
              "internalType": "enum StudentManagement.Gender",
              "name": "gender",
              "type": "uint8"
            }
          ],
          "internalType": "struct StudentManagement.Student[]",
          "name": "students_",
          "type": "tuple[]"
        }
      ],
      "stateMutability": "view",
      "type": "function"
    },
    {
      "inputs": [],
      "name": "getTotalStudentCount",
      "outputs": [
        {
          "internalType": "uint8",
          "name": "totalStudents",
          "type": "uint8"
        }
      ],
      "stateMutability": "view",
      "type": "function"
    },
    {
      "inputs": [
        {
          "internalType": "string",
          "name": "_name",
          "type": "string"
        },
        {
          "internalType": "string",
          "name": "_class",
          "type": "string"
        },
        {
          "internalType": "uint8",
          "name": "_age",
          "type": "uint8"
        },
        {
          "internalType": "enum StudentManagement.Gender",
          "name": "_gender",
          "type": "uint8"
        }
      ],
      "name": "registerStudent",
      "outputs": [],
      "stateMutability": "nonpayable",
      "type": "function"
    },
    {
      "inputs": [
        {
          "internalType": "uint8",
          "name": "_studentId",
          "type": "uint8"
        },
        {
          "internalType": "string",
          "name": "_name",
          "type": "string"
        },
        {
          "internalType": "string",
          "name": "_class",
          "type": "string"
        },
        {
          "internalType": "uint8",
          "name": "_age",
          "type": "uint8"
        }
      ],
      "name": "updateStudentDetails",
      "outputs": [],
      "stateMutability": "nonpayable",
      "type": "function"
    }
  ],
  "bytecode": "0x60806040526000600260006101000a81548160ff021916908360ff160217905550348015602b57600080fd5b50336000806101000a81548173ffffffffffffffffffffffffffffffffffffffff021916908373ffffffffffffffffffffffffffffffffffffffff1602179055506116308061007b6000396000f3fe608060405234801561001057600080fd5b50600436106100625760003560e01c80631fd30892146100675780633621ad6714610097578063451cab5a146100b35780634a277f0c146100cf578063f1d064b3146100ed578063fac13b381461010b575b600080fd5b610081600480360381019061007c9190610a80565b610127565b60405161008e9190610c2d565b60405180910390f35b6100b160048036038101906100ac9190610a80565b6102d3565b005b6100cd60048036038101906100c89190610d84565b6103d7565b005b6100d76104c5565b6040516100e49190610e32565b60405180910390f35b6100f56104dc565b6040516101029190610f79565b60405180910390f35b61012560048036038101906101209190610fc0565b61074a565b005b61012f610999565b600160008360ff1681526020019081526020016000206040518060800160405290816000820180546101609061108e565b80601f016020809104026020016040519081016040528092919081815260200182805461018c9061108e565b80156101d95780601f106101ae576101008083540402835291602001916101d9565b820191906000526020600020905b8154815290600101906020018083116101bc57829003601f168201915b505050505081526020016001820180546101f29061108e565b80601f016020809104026020016040519081016040528092919081815260200182805461021e9061108e565b801561026b5780601f106102405761010080835404028352916020019161026b565b820191906000526020600020905b81548152906001019060200180831161024e57829003601f168201915b505050505081526020016002820160009054906101000a900460ff1660ff1660ff1681526020016002820160019054906101000a900460ff1660018111156102b6576102b5610b4c565b5b60018111156102c8576102c7610b4c565b5b815250509050919050565b6000600160008360ff16815260200190815260200160002060000180546102f99061108e565b90500361033b576040517f08c379a00000000000000000000000000000000000000000000000000000000081526004016103329061111c565b60405180910390fd5b600160008260ff1681526020019081526020016000206000808201600061036291906109d6565b60018201600061037291906109d6565b6002820160006101000a81549060ff02191690556002820160016101000a81549060ff021916905550506002600081819054906101000a900460ff16809291906103bb9061116b565b91906101000a81548160ff021916908360ff1602179055505050565b6000600160008660ff16815260200190815260200160002060000180546103fd9061108e565b90500361043f576040517f08c379a00000000000000000000000000000000000000000000000000000000081526004016104369061111c565b60405180910390fd5b82600160008660ff1681526020019081526020016000206000019081610465919061134a565b5081600160008660ff168152602001908152602001600020600101908161048c919061134a565b5080600160008660ff16815260200190815260200160002060020160006101000a81548160ff021916908360ff16021790555050505050565b6000600260009054906101000a900460ff16905090565b6060600260009054906101000a900460ff1660ff1667ffffffffffffffff81111561050a57610509610c59565b5b60405190808252806020026020018201604052801561054357816020015b610530610999565b8152602001906001900390816105285790505b5090506000600190505b600260009054906101000a900460ff1660ff168160ff161161074657600160008260ff16815260200190815260200160002060405180608001604052908160008201805461059a9061108e565b80601f01602080910402602001604051908101604052809291908181526020018280546105c69061108e565b80156106135780601f106105e857610100808354040283529160200191610613565b820191906000526020600020905b8154815290600101906020018083116105f657829003601f168201915b5050505050815260200160018201805461062c9061108e565b80601f01602080910402602001604051908101604052809291908181526020018280546106589061108e565b80156106a55780601f1061067a576101008083540402835291602001916106a5565b820191906000526020600020905b81548152906001019060200180831161068857829003601f168201915b505050505081526020016002820160009054906101000a900460ff1660ff1660ff1681526020016002820160019054906101000a900460ff1660018111156106f0576106ef610b4c565b5b600181111561070257610701610b4c565b5b8152505082600183610714919061141c565b60ff168151811061072857610727611451565b5b6020026020010181905250808061073e90611480565b91505061054d565b5090565b60008054906101000a900473ffffffffffffffffffffffffffffffffffffffff1673ffffffffffffffffffffffffffffffffffffffff163373ffffffffffffffffffffffffffffffffffffffff16146107d8576040517f08c379a00000000000000000000000000000000000000000000000000000000081526004016107cf9061151b565b60405180910390fd5b60038260ff161161081e576040517f08c379a000000000000000000000000000000000000000000000000000000000815260040161081590611587565b60405180910390fd5b600060405180608001604052808681526020018581526020018460ff16815260200183600181111561085357610852610b4c565b5b81525090506002600081819054906101000a900460ff168092919061087790611480565b91906101000a81548160ff021916908360ff160217905550508060016000600260009054906101000a900460ff1660ff16815260200190815260200160002060008201518160000190816108cb919061134a565b5060208201518160010190816108e1919061134a565b5060408201518160020160006101000a81548160ff021916908360ff16021790555060608201518160020160016101000a81548160ff0219169083600181111561092e5761092d610b4c565b5b02179055509050508260ff168460405161094891906115e3565b60405180910390208660405161095e91906115e3565b60405180910390207fceb2073d48f2f700e39fd42fceb7dc2e655c683907e09baadee22d17e015664060405160405180910390a45050505050565b60405180608001604052806060815260200160608152602001600060ff168152602001600060018111156109d0576109cf610b4c565b5b81525090565b5080546109e29061108e565b6000825580601f106109f45750610a13565b601f016020900490600052602060002090810190610a129190610a16565b5b50565b5b80821115610a2f576000816000905550600101610a17565b5090565b6000604051905090565b600080fd5b600080fd5b600060ff82169050919050565b610a5d81610a47565b8114610a6857600080fd5b50565b600081359050610a7a81610a54565b92915050565b600060208284031215610a9657610a95610a3d565b5b6000610aa484828501610a6b565b91505092915050565b600081519050919050565b600082825260208201905092915050565b60005b83811015610ae7578082015181840152602081019050610acc565b60008484015250505050565b6000601f19601f8301169050919050565b6000610b0f82610aad565b610b198185610ab8565b9350610b29818560208601610ac9565b610b3281610af3565b840191505092915050565b610b4681610a47565b82525050565b7f4e487b7100000000000000000000000000000000000000000000000000000000600052602160045260246000fd5b60028110610b8c57610b8b610b4c565b5b50565b6000819050610b9d82610b7b565b919050565b6000610bad82610b8f565b9050919050565b610bbd81610ba2565b82525050565b60006080830160008301518482036000860152610be08282610b04565b91505060208301518482036020860152610bfa8282610b04565b9150506040830151610c0f6040860182610b3d565b506060830151610c226060860182610bb4565b508091505092915050565b60006020820190508181036000830152610c478184610bc3565b905092915050565b600080fd5b600080fd5b7f4e487b7100000000000000000000000000000000000000000000000000000000600052604160045260246000fd5b610c9182610af3565b810181811067ffffffffffffffff82111715610cb057610caf610c59565b5b80604052505050565b6000610cc3610a33565b9050610ccf8282610c88565b919050565b600067ffffffffffffffff821115610cef57610cee610c59565b5b610cf882610af3565b9050602081019050919050565b82818337600083830152505050565b6000610d27610d2284610cd4565b610cb9565b905082815260208101848484011115610d4357610d42610c54565b5b610d4e848285610d05565b509392505050565b600082601f830112610d6b57610d6a610c4f565b5b8135610d7b848260208601610d14565b91505092915050565b60008060008060808587031215610d9e57610d9d610a3d565b5b6000610dac87828801610a6b565b945050602085013567ffffffffffffffff811115610dcd57610dcc610a42565b5b610dd987828801610d56565b935050604085013567ffffffffffffffff811115610dfa57610df9610a42565b5b610e0687828801610d56565b9250506060610e1787828801610a6b565b91505092959194509250565b610e2c81610a47565b82525050565b6000602082019050610e476000830184610e23565b92915050565b600081519050919050565b600082825260208201905092915050565b6000819050602082019050919050565b60006080830160008301518482036000860152610e968282610b04565b91505060208301518482036020860152610eb08282610b04565b9150506040830151610ec56040860182610b3d565b506060830151610ed86060860182610bb4565b508091505092915050565b6000610eef8383610e79565b905092915050565b6000602082019050919050565b6000610f0f82610e4d565b610f198185610e58565b935083602082028501610f2b85610e69565b8060005b85811015610f675784840389528151610f488582610ee3565b9450610f5383610ef7565b925060208a01995050600181019050610f2f565b50829750879550505050505092915050565b60006020820190508181036000830152610f938184610f04565b905092915050565b60028110610fa857600080fd5b50565b600081359050610fba81610f9b565b92915050565b60008060008060808587031215610fda57610fd9610a3d565b5b600085013567ffffffffffffffff811115610ff857610ff7610a42565b5b61100487828801610d56565b945050602085013567ffffffffffffffff81111561102557611024610a42565b5b61103187828801610d56565b935050604061104287828801610a6b565b925050606061105387828801610fab565b91505092959194509250565b7f4e487b7100000000000000000000000000000000000000000000000000000000600052602260045260246000fd5b600060028204905060018216806110a657607f821691505b6020821081036110b9576110b861105f565b5b50919050565b600082825260208201905092915050565b7f53747564656e7420646f6573206e6f7420657869737400000000000000000000600082015250565b60006111066016836110bf565b9150611111826110d0565b602082019050919050565b60006020820190508181036000830152611135816110f9565b9050919050565b7f4e487b7100000000000000000000000000000000000000000000000000000000600052601160045260246000fd5b600061117682610a47565b9150600082036111895761118861113c565b5b600182039050919050565b60008190508160005260206000209050919050565b60006020601f8301049050919050565b600082821b905092915050565b6000600883026111f67fffffffffffffffffffffffffffffffffffffffffffffffffffffffffffffffff826111b9565b61120086836111b9565b95508019841693508086168417925050509392505050565b6000819050919050565b6000819050919050565b600061124761124261123d84611218565b611222565b611218565b9050919050565b6000819050919050565b6112618361122c565b61127561126d8261124e565b8484546111c6565b825550505050565b600090565b61128a61127d565b611295818484611258565b505050565b5b818110156112b9576112ae600082611282565b60018101905061129b565b5050565b601f8211156112fe576112cf81611194565b6112d8846111a9565b810160208510156112e7578190505b6112fb6112f3856111a9565b83018261129a565b50505b505050565b600082821c905092915050565b600061132160001984600802611303565b1980831691505092915050565b600061133a8383611310565b9150826002028217905092915050565b61135382610aad565b67ffffffffffffffff81111561136c5761136b610c59565b5b611376825461108e565b6113818282856112bd565b600060209050601f8311600181146113b457600084156113a2578287015190505b6113ac858261132e565b865550611414565b601f1984166113c286611194565b60005b828110156113ea578489015182556001820191506020850194506020810190506113c5565b868310156114075784890151611403601f891682611310565b8355505b6001600288020188555050505b505050505050565b600061142782610a47565b915061143283610a47565b9250828203905060ff81111561144b5761144a61113c565b5b92915050565b7f4e487b7100000000000000000000000000000000000000000000000000000000600052603260045260246000fd5b600061148b82610a47565b915060ff820361149e5761149d61113c565b5b600182019050919050565b7f4f6e6c792041646d696e2043616e20506572666f726d2074686973206163746960008201527f6f6e000000000000000000000000000000000000000000000000000000000000602082015250565b60006115056022836110bf565b9150611510826114a9565b604082019050919050565b60006020820190508181036000830152611534816114f8565b9050919050565b7f416765206d7573742062652067726561746572207468616e2033000000000000600082015250565b6000611571601a836110bf565b915061157c8261153b565b602082019050919050565b600060208201905081810360008301526115a081611564565b9050919050565b600081905092915050565b60006115bd82610aad565b6115c781856115a7565b93506115d7818560208601610ac9565b80840191505092915050565b60006115ef82846115b2565b91508190509291505056fea2646970667358221220a4cff5da579a3f7d8fb7311da5332cdaedf07e31df547674969ae3871107111364736f6c634300081c0033",
  "linkReferences": {},
  "deployedLinkReferences": {}
}